{
  "_format": "hh-sol-artifact-1",
  "contractName": "DDCPresaleVesting",
  "sourceName": "contracts/presale/DDCPresaleVesting.sol",
  "abi": [
    {
      "inputs": [
        {
          "internalType": "address",
          "name": "owner_",
          "type": "address"
        },
        {
          "internalType": "address",
          "name": "ddc_",
          "type": "address"
        },
        {
          "internalType": "address",
          "name": "usdt_",
          "type": "address"
        },
        {
          "internalType": "address",
          "name": "rewardPool_",
          "type": "address"
        },
        {
          "internalType": "address",
          "name": "treasury_",
          "type": "address"
        },
        {
          "internalType": "uint64",
          "name": "presaleStart_",
          "type": "uint64"
        },
        {
          "internalType": "uint256[40]",
          "name": "batchPricesUSDT6_",
          "type": "uint256[40]"
        }
      ],
      "stateMutability": "nonpayable",
      "type": "constructor"
    },
    {
      "inputs": [],
      "name": "EnforcedPause",
      "type": "error"
    },
    {
      "inputs": [],
      "name": "ExpectedPause",
      "type": "error"
    },
    {
      "inputs": [
        {
          "internalType": "address",
          "name": "owner",
          "type": "address"
        }
      ],
      "name": "OwnableInvalidOwner",
      "type": "error"
    },
    {
      "inputs": [
        {
          "internalType": "address",
          "name": "account",
          "type": "address"
        }
      ],
      "name": "OwnableUnauthorizedAccount",
      "type": "error"
    },
    {
      "inputs": [],
      "name": "ReentrancyGuardReentrantCall",
      "type": "error"
    },
    {
      "inputs": [
        {
          "internalType": "address",
          "name": "token",
          "type": "address"
        }
      ],
      "name": "SafeERC20FailedOperation",
      "type": "error"
    },
    {
      "anonymous": false,
      "inputs": [
        {
          "indexed": true,
          "internalType": "uint8",
          "name": "previousBatch",
          "type": "uint8"
        },
        {
          "indexed": true,
          "internalType": "uint8",
          "name": "newBatch",
          "type": "uint8"
        }
      ],
      "name": "BatchAdvanced",
      "type": "event"
    },
    {
      "anonymous": false,
      "inputs": [
        {
          "indexed": true,
          "internalType": "uint8",
          "name": "fromBatch",
          "type": "uint8"
        },
        {
          "indexed": true,
          "internalType": "uint8",
          "name": "toBatch",
          "type": "uint8"
        },
        {
          "indexed": false,
          "internalType": "uint256",
          "name": "amountRolled",
          "type": "uint256"
        }
      ],
      "name": "BatchRollover",
      "type": "event"
    },
    {
      "anonymous": false,
      "inputs": [
        {
          "indexed": true,
          "internalType": "address",
          "name": "user",
          "type": "address"
        },
        {
          "indexed": false,
          "internalType": "uint256",
          "name": "amount",
          "type": "uint256"
        }
      ],
      "name": "Claimed",
      "type": "event"
    },
    {
      "anonymous": false,
      "inputs": [
        {
          "indexed": true,
          "internalType": "address",
          "name": "previousOwner",
          "type": "address"
        },
        {
          "indexed": true,
          "internalType": "address",
          "name": "newOwner",
          "type": "address"
        }
      ],
      "name": "OwnershipTransferred",
      "type": "event"
    },
    {
      "anonymous": false,
      "inputs": [
        {
          "indexed": false,
          "internalType": "address",
          "name": "account",
          "type": "address"
        }
      ],
      "name": "Paused",
      "type": "event"
    },
    {
      "anonymous": false,
      "inputs": [
        {
          "indexed": false,
          "internalType": "uint256",
          "name": "totalSold",
          "type": "uint256"
        },
        {
          "indexed": false,
          "internalType": "uint256",
          "name": "unsoldToRewards",
          "type": "uint256"
        }
      ],
      "name": "PresaleFinished",
      "type": "event"
    },
    {
      "anonymous": false,
      "inputs": [
        {
          "indexed": true,
          "internalType": "address",
          "name": "user",
          "type": "address"
        },
        {
          "indexed": true,
          "internalType": "uint8",
          "name": "batchId",
          "type": "uint8"
        },
        {
          "indexed": false,
          "internalType": "uint256",
          "name": "amountDDC",
          "type": "uint256"
        },
        {
          "indexed": false,
          "internalType": "uint256",
          "name": "paidAmount",
          "type": "uint256"
        },
        {
          "indexed": false,
          "internalType": "bool",
          "name": "isUSDT",
          "type": "bool"
        },
        {
          "indexed": false,
          "internalType": "bytes32",
          "name": "txId",
          "type": "bytes32"
        }
      ],
      "name": "Purchased",
      "type": "event"
    },
    {
      "anonymous": false,
      "inputs": [
        {
          "indexed": true,
          "internalType": "address",
          "name": "treasury",
          "type": "address"
        },
        {
          "indexed": false,
          "internalType": "uint256",
          "name": "usdtAmount",
          "type": "uint256"
        }
      ],
      "name": "RaisedFundsWithdrawn",
      "type": "event"
    },
    {
      "anonymous": false,
      "inputs": [
        {
          "indexed": true,
          "internalType": "uint64",
          "name": "tgeTimestamp",
          "type": "uint64"
        }
      ],
      "name": "TgeSet",
      "type": "event"
    },
    {
      "anonymous": false,
      "inputs": [
        {
          "indexed": false,
          "internalType": "address",
          "name": "account",
          "type": "address"
        }
      ],
      "name": "Unpaused",
      "type": "event"
    },
    {
      "inputs": [],
      "name": "BATCH_BASE_ALLOCATION",
      "outputs": [
        {
          "internalType": "uint256",
          "name": "",
          "type": "uint256"
        }
      ],
      "stateMutability": "view",
      "type": "function"
    },
    {
      "inputs": [],
      "name": "BATCH_DURATION",
      "outputs": [
        {
          "internalType": "uint64",
          "name": "",
          "type": "uint64"
        }
      ],
      "stateMutability": "view",
      "type": "function"
    },
    {
      "inputs": [],
      "name": "MAX_PURCHASE_USDT",
      "outputs": [
        {
          "internalType": "uint256",
          "name": "",
          "type": "uint256"
        }
      ],
      "stateMutability": "view",
      "type": "function"
    },
    {
      "inputs": [],
      "name": "MIN_PURCHASE_USDT",
      "outputs": [
        {
          "internalType": "uint256",
          "name": "",
          "type": "uint256"
        }
      ],
      "stateMutability": "view",
      "type": "function"
    },
    {
      "inputs": [],
      "name": "PRESALE_NOMINAL_TOTAL",
      "outputs": [
        {
          "internalType": "uint256",
          "name": "",
          "type": "uint256"
        }
      ],
      "stateMutability": "view",
      "type": "function"
    },
    {
      "inputs": [],
      "name": "TOTAL_BATCHES",
      "outputs": [
        {
          "internalType": "uint8",
          "name": "",
          "type": "uint8"
        }
      ],
      "stateMutability": "view",
      "type": "function"
    },
    {
      "inputs": [],
      "name": "TREASURY_SWEEP_THRESHOLD_USDT",
      "outputs": [
        {
          "internalType": "uint256",
          "name": "",
          "type": "uint256"
        }
      ],
      "stateMutability": "view",
      "type": "function"
    },
    {
      "inputs": [
        {
          "internalType": "uint8",
          "name": "batchId",
          "type": "uint8"
        }
      ],
      "name": "batchInfo",
      "outputs": [
        {
          "internalType": "uint256",
          "name": "priceUSDT",
          "type": "uint256"
        },
        {
          "internalType": "uint256",
          "name": "baseAllocationDDC",
          "type": "uint256"
        },
        {
          "internalType": "uint256",
          "name": "rolloverInDDC",
          "type": "uint256"
        },
        {
          "internalType": "uint256",
          "name": "hardCapDDC",
          "type": "uint256"
        },
        {
          "internalType": "uint256",
          "name": "soldDDC",
          "type": "uint256"
        },
        {
          "internalType": "uint64",
          "name": "startTime",
          "type": "uint64"
        },
        {
          "internalType": "uint64",
          "name": "endTime",
          "type": "uint64"
        },
        {
          "internalType": "bool",
          "name": "isActive",
          "type": "bool"
        },
        {
          "internalType": "bool",
          "name": "isClosed",
          "type": "bool"
        }
      ],
      "stateMutability": "view",
      "type": "function"
    },
    {
      "inputs": [
        {
          "internalType": "uint256",
          "name": "usdtAmount",
          "type": "uint256"
        },
        {
          "internalType": "bytes32",
          "name": "txId",
          "type": "bytes32"
        }
      ],
      "name": "buyWithUSDT",
      "outputs": [],
      "stateMutability": "nonpayable",
      "type": "function"
    },
    {
      "inputs": [],
      "name": "claim",
      "outputs": [],
      "stateMutability": "nonpayable",
      "type": "function"
    },
    {
      "inputs": [
        {
          "internalType": "address",
          "name": "user",
          "type": "address"
        }
      ],
      "name": "claimable",
      "outputs": [
        {
          "internalType": "uint256",
          "name": "",
          "type": "uint256"
        }
      ],
      "stateMutability": "view",
      "type": "function"
    },
    {
      "inputs": [
        {
          "internalType": "address",
          "name": "",
          "type": "address"
        }
      ],
      "name": "claimed",
      "outputs": [
        {
          "internalType": "uint256",
          "name": "",
          "type": "uint256"
        }
      ],
      "stateMutability": "view",
      "type": "function"
    },
    {
      "inputs": [],
      "name": "currentBatch",
      "outputs": [
        {
          "internalType": "uint8",
          "name": "",
          "type": "uint8"
        }
      ],
      "stateMutability": "view",
      "type": "function"
    },
    {
      "inputs": [],
      "name": "currentBatchId",
      "outputs": [
        {
          "internalType": "uint8",
          "name": "",
          "type": "uint8"
        }
      ],
      "stateMutability": "view",
      "type": "function"
    },
    {
      "inputs": [],
      "name": "ddc",
      "outputs": [
        {
          "internalType": "contract IERC20",
          "name": "",
          "type": "address"
        }
      ],
      "stateMutability": "view",
      "type": "function"
    },
    {
      "inputs": [],
      "name": "finalize",
      "outputs": [],
      "stateMutability": "nonpayable",
      "type": "function"
    },
    {
      "inputs": [],
      "name": "finalizeFundingStatus",
      "outputs": [
        {
          "internalType": "uint256",
          "name": "buyerReserveRequired",
          "type": "uint256"
        },
        {
          "internalType": "uint256",
          "name": "rewardPoolResidualRequired",
          "type": "uint256"
        },
        {
          "internalType": "uint256",
          "name": "totalRequired",
          "type": "uint256"
        },
        {
          "internalType": "uint256",
          "name": "currentBalance",
          "type": "uint256"
        },
        {
          "internalType": "uint256",
          "name": "shortfall",
          "type": "uint256"
        }
      ],
      "stateMutability": "view",
      "type": "function"
    },
    {
      "inputs": [],
      "name": "finalized",
      "outputs": [
        {
          "internalType": "bool",
          "name": "",
          "type": "bool"
        }
      ],
      "stateMutability": "view",
      "type": "function"
    },
    {
      "inputs": [
        {
          "internalType": "address",
          "name": "user",
          "type": "address"
        }
      ],
      "name": "locked",
      "outputs": [
        {
          "internalType": "uint256",
          "name": "",
          "type": "uint256"
        }
      ],
      "stateMutability": "view",
      "type": "function"
    },
    {
      "inputs": [],
      "name": "owner",
      "outputs": [
        {
          "internalType": "address",
          "name": "",
          "type": "address"
        }
      ],
      "stateMutability": "view",
      "type": "function"
    },
    {
      "inputs": [],
      "name": "pause",
      "outputs": [],
      "stateMutability": "nonpayable",
      "type": "function"
    },
    {
      "inputs": [],
      "name": "paused",
      "outputs": [
        {
          "internalType": "bool",
          "name": "",
          "type": "bool"
        }
      ],
      "stateMutability": "view",
      "type": "function"
    },
    {
      "inputs": [],
      "name": "presaleStart",
      "outputs": [
        {
          "internalType": "uint64",
          "name": "",
          "type": "uint64"
        }
      ],
      "stateMutability": "view",
      "type": "function"
    },
    {
      "inputs": [],
      "name": "renounceOwnership",
      "outputs": [],
      "stateMutability": "nonpayable",
      "type": "function"
    },
    {
      "inputs": [],
      "name": "rewardPool",
      "outputs": [
        {
          "internalType": "contract IDDCRewardPool",
          "name": "",
          "type": "address"
        }
      ],
      "stateMutability": "view",
      "type": "function"
    },
    {
      "inputs": [
        {
          "internalType": "uint64",
          "name": "tge_",
          "type": "uint64"
        }
      ],
      "name": "setTGE",
      "outputs": [],
      "stateMutability": "nonpayable",
      "type": "function"
    },
    {
      "inputs": [
        {
          "internalType": "uint8",
          "name": "",
          "type": "uint8"
        },
        {
          "internalType": "address",
          "name": "",
          "type": "address"
        }
      ],
      "name": "spentUsdtPerBatch",
      "outputs": [
        {
          "internalType": "uint256",
          "name": "",
          "type": "uint256"
        }
      ],
      "stateMutability": "view",
      "type": "function"
    },
    {
      "inputs": [],
      "name": "sweepRaisedFundsToTreasury",
      "outputs": [],
      "stateMutability": "nonpayable",
      "type": "function"
    },
    {
      "inputs": [],
      "name": "tgeTimestamp",
      "outputs": [
        {
          "internalType": "uint64",
          "name": "",
          "type": "uint64"
        }
      ],
      "stateMutability": "view",
      "type": "function"
    },
    {
      "inputs": [],
      "name": "totalBatches",
      "outputs": [
        {
          "internalType": "uint8",
          "name": "",
          "type": "uint8"
        }
      ],
      "stateMutability": "pure",
      "type": "function"
    },
    {
      "inputs": [],
      "name": "totalBurnLockedFromSales",
      "outputs": [
        {
          "internalType": "uint256",
          "name": "",
          "type": "uint256"
        }
      ],
      "stateMutability": "view",
      "type": "function"
    },
    {
      "inputs": [],
      "name": "totalBuyerPrincipal",
      "outputs": [
        {
          "internalType": "uint256",
          "name": "",
          "type": "uint256"
        }
      ],
      "stateMutability": "view",
      "type": "function"
    },
    {
      "inputs": [],
      "name": "totalClaimed",
      "outputs": [
        {
          "internalType": "uint256",
          "name": "",
          "type": "uint256"
        }
      ],
      "stateMutability": "view",
      "type": "function"
    },
    {
      "inputs": [],
      "name": "totalNominalSold",
      "outputs": [
        {
          "internalType": "uint256",
          "name": "",
          "type": "uint256"
        }
      ],
      "stateMutability": "view",
      "type": "function"
    },
    {
      "inputs": [
        {
          "internalType": "address",
          "name": "",
          "type": "address"
        }
      ],
      "name": "totalPurchased",
      "outputs": [
        {
          "internalType": "uint256",
          "name": "",
          "type": "uint256"
        }
      ],
      "stateMutability": "view",
      "type": "function"
    },
    {
      "inputs": [
        {
          "internalType": "address",
          "name": "newOwner",
          "type": "address"
        }
      ],
      "name": "transferOwnership",
      "outputs": [],
      "stateMutability": "nonpayable",
      "type": "function"
    },
    {
      "inputs": [],
      "name": "treasury",
      "outputs": [
        {
          "internalType": "address",
          "name": "",
          "type": "address"
        }
      ],
      "stateMutability": "view",
      "type": "function"
    },
    {
      "inputs": [],
      "name": "unpause",
      "outputs": [],
      "stateMutability": "nonpayable",
      "type": "function"
    },
    {
      "inputs": [],
      "name": "usdt",
      "outputs": [
        {
          "internalType": "contract IERC20",
          "name": "",
          "type": "address"
        }
      ],
      "stateMutability": "view",
      "type": "function"
    },
    {
      "inputs": [
        {
          "internalType": "address",
          "name": "user",
          "type": "address"
        },
        {
          "internalType": "uint256",
          "name": "offset",
          "type": "uint256"
        },
        {
          "internalType": "uint256",
          "name": "limit",
          "type": "uint256"
        }
      ],
      "name": "userPurchases",
      "outputs": [
        {
          "components": [
            {
              "internalType": "uint64",
              "name": "timestamp",
              "type": "uint64"
            },
            {
              "internalType": "uint8",
              "name": "batchId",
              "type": "uint8"
            },
            {
              "internalType": "uint256",
              "name": "amountDDC",
              "type": "uint256"
            },
            {
              "internalType": "uint256",
              "name": "paidUSDT",
              "type": "uint256"
            },
            {
              "internalType": "bytes32",
              "name": "txId",
              "type": "bytes32"
            }
          ],
          "internalType": "struct DDCPresaleVesting.Purchase[]",
          "name": "",
          "type": "tuple[]"
        }
      ],
      "stateMutability": "view",
      "type": "function"
    },
    {
      "inputs": [
        {
          "internalType": "address",
          "name": "",
          "type": "address"
        }
      ],
      "name": "vestingPrincipal",
      "outputs": [
        {
          "internalType": "uint256",
          "name": "",
          "type": "uint256"
        }
      ],
      "stateMutability": "view",
      "type": "function"
    },
    {
      "inputs": [],
      "name": "withdrawRaisedFunds",
      "outputs": [],
      "stateMutability": "nonpayable",
      "type": "function"
    }
  ],
  "bytecode": "0x6101206040523480156200001257600080fd5b50604051620053b8380380620053b8833981810160405281019062000038919062000936565b86600073ffffffffffffffffffffffffffffffffffffffff168173ffffffffffffffffffffffffffffffffffffffff1603620000ae5760006040517f1e4fbdf7000000000000000000000000000000000000000000000000000000008152600401620000a59190620009fb565b60405180910390fd5b620000bf816200061b60201b60201c565b5060018081905550600073ffffffffffffffffffffffffffffffffffffffff168673ffffffffffffffffffffffffffffffffffffffff160362000139576040517f08c379a0000000000000000000000000000000000000000000000000000000008152600401620001309062000a79565b60405180910390fd5b600073ffffffffffffffffffffffffffffffffffffffff168573ffffffffffffffffffffffffffffffffffffffff1603620001ab576040517f08c379a0000000000000000000000000000000000000000000000000000000008152600401620001a29062000aeb565b60405180910390fd5b600073ffffffffffffffffffffffffffffffffffffffff168473ffffffffffffffffffffffffffffffffffffffff16036200021d576040517f08c379a0000000000000000000000000000000000000000000000000000000008152600401620002149062000b5d565b60405180910390fd5b600073ffffffffffffffffffffffffffffffffffffffff168373ffffffffffffffffffffffffffffffffffffffff16036200028f576040517f08c379a0000000000000000000000000000000000000000000000000000000008152600401620002869062000bcf565b60405180910390fd5b60008267ffffffffffffffff1611620002df576040517f08c379a0000000000000000000000000000000000000000000000000000000008152600401620002d69062000c41565b60405180910390fd5b8573ffffffffffffffffffffffffffffffffffffffff1660808173ffffffffffffffffffffffffffffffffffffffff16815250508473ffffffffffffffffffffffffffffffffffffffff1660a08173ffffffffffffffffffffffffffffffffffffffff16815250508373ffffffffffffffffffffffffffffffffffffffff1660c08173ffffffffffffffffffffffffffffffffffffffff16815250508273ffffffffffffffffffffffffffffffffffffffff1660e08173ffffffffffffffffffffffffffffffffffffffff16815250508167ffffffffffffffff166101008167ffffffffffffffff168152505060005b602860ff168160ff16101562000495576000828260ff1660288110620003fa57620003f962000c63565b5b60200201511162000442576040517f08c379a0000000000000000000000000000000000000000000000000000000008152600401620004399062000ce2565b60405180910390fd5b818160ff16602881106200045b576200045a62000c63565b5b6020020151600e8260ff16602881106200047a576200047962000c63565b5b018190555080806200048c9062000d40565b915050620003cf565b506001600260006101000a81548160ff021916908360ff160217905550604051806101000160405280600e600060288110620004d657620004d562000c63565b5b015481526020016a021e19e0c9bab2400000008152602001600081526020016a021e19e0c9bab2400000008152602001600081526020018367ffffffffffffffff1681526020016205a000846200052e919062000d6e565b67ffffffffffffffff1681526020016000151581525060046000600160ff168152602001908152602001600020600082015181600001556020820151816001015560408201518160020155606082015181600301556080820151816004015560a08201518160050160006101000a81548167ffffffffffffffff021916908367ffffffffffffffff16021790555060c08201518160050160086101000a81548167ffffffffffffffff021916908367ffffffffffffffff16021790555060e08201518160050160106101000a81548160ff0219169083151502179055509050505050505050505062000db1565b60008060009054906101000a900473ffffffffffffffffffffffffffffffffffffffff169050816000806101000a81548173ffffffffffffffffffffffffffffffffffffffff021916908373ffffffffffffffffffffffffffffffffffffffff1602179055508173ffffffffffffffffffffffffffffffffffffffff168173ffffffffffffffffffffffffffffffffffffffff167f8be0079c531659141344cd1fd0a4f28419497f9722a3daafe3b4186f6b6457e060405160405180910390a35050565b6000604051905090565b600080fd5b600073ffffffffffffffffffffffffffffffffffffffff82169050919050565b60006200071b82620006ee565b9050919050565b6200072d816200070e565b81146200073957600080fd5b50565b6000815190506200074d8162000722565b92915050565b600067ffffffffffffffff82169050919050565b620007728162000753565b81146200077e57600080fd5b50565b600081519050620007928162000767565b92915050565b600080fd5b6000601f19601f8301169050919050565b7f4e487b7100000000000000000000000000000000000000000000000000000000600052604160045260246000fd5b620007e8826200079d565b810181811067ffffffffffffffff821117156200080a5762000809620007ae565b5b80604052505050565b60006200081f620006df565b90506200082d8282620007dd565b919050565b600067ffffffffffffffff82111562000850576200084f620007ae565b5b602082029050919050565b600080fd5b6000819050919050565b620008758162000860565b81146200088157600080fd5b50565b60008151905062000895816200086a565b92915050565b6000620008b2620008ac8462000832565b62000813565b90508060208402830185811115620008cf57620008ce6200085b565b5b835b81811015620008fc5780620008e7888262000884565b845260208401935050602081019050620008d1565b5050509392505050565b600082601f8301126200091e576200091d62000798565b5b60286200092d8482856200089b565b91505092915050565b60008060008060008060006105c0888a031215620009595762000958620006e9565b5b6000620009698a828b016200073c565b97505060206200097c8a828b016200073c565b96505060406200098f8a828b016200073c565b9550506060620009a28a828b016200073c565b9450506080620009b58a828b016200073c565b93505060a0620009c88a828b0162000781565b92505060c0620009db8a828b0162000906565b91505092959891949750929550565b620009f5816200070e565b82525050565b600060208201905062000a126000830184620009ea565b92915050565b600082825260208201905092915050565b7f7a65726f20646463000000000000000000000000000000000000000000000000600082015250565b600062000a6160088362000a18565b915062000a6e8262000a29565b602082019050919050565b6000602082019050818103600083015262000a948162000a52565b9050919050565b7f7a65726f20757364740000000000000000000000000000000000000000000000600082015250565b600062000ad360098362000a18565b915062000ae08262000a9b565b602082019050919050565b6000602082019050818103600083015262000b068162000ac4565b9050919050565b7f7a65726f2072657761726420706f6f6c00000000000000000000000000000000600082015250565b600062000b4560108362000a18565b915062000b528262000b0d565b602082019050919050565b6000602082019050818103600083015262000b788162000b36565b9050919050565b7f7a65726f20747265617375727900000000000000000000000000000000000000600082015250565b600062000bb7600d8362000a18565b915062000bc48262000b7f565b602082019050919050565b6000602082019050818103600083015262000bea8162000ba8565b9050919050565b7f7a65726f2070726573616c652073746172740000000000000000000000000000600082015250565b600062000c2960128362000a18565b915062000c368262000bf1565b602082019050919050565b6000602082019050818103600083015262000c5c8162000c1a565b9050919050565b7f4e487b7100000000000000000000000000000000000000000000000000000000600052603260045260246000fd5b7f7a65726f20707269636500000000000000000000000000000000000000000000600082015250565b600062000cca600a8362000a18565b915062000cd78262000c92565b602082019050919050565b6000602082019050818103600083015262000cfd8162000cbb565b9050919050565b7f4e487b7100000000000000000000000000000000000000000000000000000000600052601160045260246000fd5b600060ff82169050919050565b600062000d4d8262000d33565b915060ff820362000d635762000d6262000d04565b5b600182019050919050565b600062000d7b8262000753565b915062000d888362000753565b9250828201905067ffffffffffffffff81111562000dab5762000daa62000d04565b5b92915050565b60805160a05160c05160e0516101005161454b62000e6d6000396000611ed8015260008181610fe40152818161116b015281816111d40152818161126b01528181612f0b0152612f73015260008181610c6801528181610cd201528181610d93015261128f01526000818161077b015281816110c30152818161118d01528181611a8201528181612e370152612f2d015260008181610b8a01528181610c8a01528181610f38015281816112f70152611d44015261454b6000f3fe608060405234801561001057600080fd5b506004361061025e5760003560e01c8063715018a611610146578063b3f05b97116100c3578063d54ad2a111610087578063d54ad2a114610683578063de8801e5146106a1578063e093fb7b146106bf578063e8dbf307146106ef578063f1b8176e1461071f578063f2fde38b1461073d5761025e565b8063b3f05b97146105c5578063b5e13208146105e3578063bdee010114610601578063c884ef8314610623578063cbf9fe5f146106535761025e565b80639a1ca45d1161010a5780639a1ca45d1461052b5780639a7599db14610535578063a4317ef414610551578063a96369d51461056f578063b1e9b168146105a75761025e565b8063715018a6146104bd57806376cd940e146104c75780638456cb59146104e55780638a99667a146104ef5780638da5cb5b1461050d5761025e565b80634a97646f116101df5780635b8e03b8116101a35780635b8e03b8146104095780635c975abb1461042757806361d027b31461044557806366666aa91461046357806369c360911461048157806369ff6abb1461049f5761025e565b80634a97646f1461039d5780634bb278f3146103cd5780634e71d92d146103d757806350fb0dad146103e15780635413713a146103ff5761025e565b80633f4ba83a116102265780633f4ba83a146102f7578063402914f51461030157806345ec58361461033157806349673bf51461034f578063497aef281461036d5761025e565b80630a763da11461026357806317f8793c146102815780632d93e4db1461029f5780632f48ab7d146102bd5780633afaff36146102db575b600080fd5b61026b610759565b60405161027891906131ec565b60405180910390f35b61028961076c565b6040516102969190613220565b60405180910390f35b6102a7610772565b6040516102b4919061325e565b60405180910390f35b6102c5610779565b6040516102d291906132f8565b60405180910390f35b6102f560048036038101906102f09190613344565b61079d565b005b6102ff6108b7565b005b61031b600480360381019061031691906133af565b6108c9565b6040516103289190613220565b60405180910390f35b61033961097e565b6040516103469190613220565b60405180910390f35b610357610987565b6040516103649190613220565b60405180910390f35b610387600480360381019061038291906133af565b610996565b6040516103949190613220565b60405180910390f35b6103b760048036038101906103b29190613408565b6109ae565b6040516103c49190613220565b60405180910390f35b6103d56109d3565b005b6103df610e6a565b005b6103e9610fd5565b6040516103f691906131ec565b60405180910390f35b610407610fda565b005b61041161124b565b60405161041e9190613220565b60405180910390f35b61042f611253565b60405161043c9190613463565b60405180910390f35b61044d611269565b60405161045a919061348d565b60405180910390f35b61046b61128d565b60405161047891906134c9565b60405180910390f35b6104896112b1565b6040516104969190613220565b60405180910390f35b6104a76112b7565b6040516104b491906131ec565b60405180910390f35b6104c56112c0565b005b6104cf6112d4565b6040516104dc91906131ec565b60405180910390f35b6104ed6112e3565b005b6104f76112f5565b60405161050491906132f8565b60405180910390f35b610515611319565b604051610522919061348d565b60405180910390f35b610533611342565b005b61054f600480360381019061054a9190613546565b6113a4565b005b610559611b43565b604051610566919061325e565b60405180910390f35b61058960048036038101906105849190613586565b611b5d565b60405161059e999897969594939291906135b3565b60405180910390f35b6105af611cdd565b6040516105bc9190613220565b60405180910390f35b6105cd611ce6565b6040516105da9190613463565b60405180910390f35b6105eb611cf9565b6040516105f89190613220565b60405180910390f35b610609611cff565b60405161061a959493929190613640565b60405180910390f35b61063d600480360381019061063891906133af565b611e03565b60405161064a9190613220565b60405180910390f35b61066d600480360381019061066891906133af565b611e1b565b60405161067a9190613220565b60405180910390f35b61068b611ed0565b6040516106989190613220565b60405180910390f35b6106a9611ed6565b6040516106b6919061325e565b60405180910390f35b6106d960048036038101906106d491906133af565b611efa565b6040516106e69190613220565b60405180910390f35b61070960048036038101906107049190613693565b611f12565b6040516107169190613839565b60405180910390f35b610727612137565b6040516107349190613220565b60405180910390f35b610757600480360381019061075291906133af565b612146565b005b600260009054906101000a900460ff1681565b600c5481565b6205a00081565b7f000000000000000000000000000000000000000000000000000000000000000081565b6107a56121cc565b6000600260019054906101000a900467ffffffffffffffff1667ffffffffffffffff1614610808576040517f08c379a00000000000000000000000000000000000000000000000000000000081526004016107ff906138b8565b60405180910390fd5b428167ffffffffffffffff1611610854576040517f08c379a000000000000000000000000000000000000000000000000000000000815260040161084b90613924565b60405180910390fd5b80600260016101000a81548167ffffffffffffffff021916908367ffffffffffffffff1602179055508067ffffffffffffffff167fc7daee89cadcad56e30d17181e4157fc25063c2c7044e0fbd046957fcbab1ffd60405160405180910390a250565b6108bf6121cc565b6108c7612253565b565b600080610914600660008573ffffffffffffffffffffffffffffffffffffffff1673ffffffffffffffffffffffffffffffffffffffff168152602001908152602001600020546122b5565b90506000600760008573ffffffffffffffffffffffffffffffffffffffff1673ffffffffffffffffffffffffffffffffffffffff168152602001908152602001600020549050808211610968576000610975565b80826109749190613973565b5b92505050919050565b64012a05f20081565b6a021e19e0c9bab24000000081565b60056020528060005260406000206000915090505481565b600a602052816000526040600020602052806000526040600020600091509150505481565b6109db61250f565b600260099054906101000a900460ff1615610a2b576040517f08c379a0000000000000000000000000000000000000000000000000000000008152600401610a22906139f3565b60405180910390fd5b610a33612555565b602860ff16600260009054906101000a900460ff1660ff1614610a8b576040517f08c379a0000000000000000000000000000000000000000000000000000000008152600401610a8290613a5f565b60405180910390fd5b600060046000602860ff1660ff16815260200190815260200160002090508060050160109054906101000a900460ff1680610ae757508060050160089054906101000a900467ffffffffffffffff1667ffffffffffffffff1642115b610b26576040517f08c379a0000000000000000000000000000000000000000000000000000000008152600401610b1d90613acb565b60405180910390fd5b6001600260096101000a81548160ff0219169083151502179055506000600c546a54b40b1f852bda00000000610b5c9190613973565b905060008190506000600354600c54610b759190613973565b905060008282610b859190613aeb565b9050807f000000000000000000000000000000000000000000000000000000000000000073ffffffffffffffffffffffffffffffffffffffff166370a08231306040518263ffffffff1660e01b8152600401610be1919061348d565b602060405180830381865afa158015610bfe573d6000803e3d6000fd5b505050506040513d601f19601f82011682018060405250810190610c229190613b34565b1015610c63576040517f08c379a0000000000000000000000000000000000000000000000000000000008152600401610c5a90613bad565b60405180910390fd5b610cce7f0000000000000000000000000000000000000000000000000000000000000000847f000000000000000000000000000000000000000000000000000000000000000073ffffffffffffffffffffffffffffffffffffffff16612ad29092919063ffffffff16565b60007f000000000000000000000000000000000000000000000000000000000000000073ffffffffffffffffffffffffffffffffffffffff16634e3c45ae6040518163ffffffff1660e01b8152600401602060405180830381865afa158015610d3b573d6000803e3d6000fd5b505050506040513d601f19601f82011682018060405250810190610d5f9190613b34565b9050600081600d541015610d8057600d5482610d7b9190613973565b610d83565b60005b905084811115610d91578490505b7f000000000000000000000000000000000000000000000000000000000000000073ffffffffffffffffffffffffffffffffffffffff1663250a5ee786836040518363ffffffff1660e01b8152600401610dec929190613bcd565b600060405180830381600087803b158015610e0657600080fd5b505af1158015610e1a573d6000803e3d6000fd5b505050507fba59ac25a5bcb4dcdd8eb61fabcaa66bc791d7e362e2a486db149e36a58e9b2b600b5486604051610e51929190613bcd565b60405180910390a150505050505050610e68612b51565b565b610e7261250f565b6000610e7d336108c9565b905060008111610ec2576040517f08c379a0000000000000000000000000000000000000000000000000000000008152600401610eb990613c42565b60405180910390fd5b80600760003373ffffffffffffffffffffffffffffffffffffffff1673ffffffffffffffffffffffffffffffffffffffff1681526020019081526020016000206000828254610f119190613aeb565b925050819055508060036000828254610f2a9190613aeb565b92505081905550610f7c33827f000000000000000000000000000000000000000000000000000000000000000073ffffffffffffffffffffffffffffffffffffffff16612ad29092919063ffffffff16565b3373ffffffffffffffffffffffffffffffffffffffff167fd8138f8a3f377c5259ca548e70e4c2de94f129f5a11036a15b69513cba2b426a82604051610fc29190613220565b60405180910390a250610fd3612b51565b565b602881565b610fe261250f565b7f000000000000000000000000000000000000000000000000000000000000000073ffffffffffffffffffffffffffffffffffffffff163373ffffffffffffffffffffffffffffffffffffffff1614611070576040517f08c379a000000000000000000000000000000000000000000000000000000000815260040161106790613cae565b60405180910390fd5b600260099054906101000a900460ff166110bf576040517f08c379a00000000000000000000000000000000000000000000000000000000081526004016110b690613d1a565b60405180910390fd5b60007f000000000000000000000000000000000000000000000000000000000000000073ffffffffffffffffffffffffffffffffffffffff166370a08231306040518263ffffffff1660e01b815260040161111a919061348d565b602060405180830381865afa158015611137573d6000803e3d6000fd5b505050506040513d601f19601f8201168201806040525081019061115b9190613b34565b905060008111156111d2576111d17f0000000000000000000000000000000000000000000000000000000000000000827f000000000000000000000000000000000000000000000000000000000000000073ffffffffffffffffffffffffffffffffffffffff16612ad29092919063ffffffff16565b5b7f000000000000000000000000000000000000000000000000000000000000000073ffffffffffffffffffffffffffffffffffffffff167f2abb9340465b010db98fa53f314984d6f6e96b8da507de6c08413b5ca70bc6d2826040516112389190613220565b60405180910390a250611249612b51565b565b6302faf08081565b60008060149054906101000a900460ff16905090565b7f000000000000000000000000000000000000000000000000000000000000000081565b7f000000000000000000000000000000000000000000000000000000000000000081565b600d5481565b60006028905090565b6112c86121cc565b6112d26000612b5a565b565b60006112de612c1e565b905090565b6112eb6121cc565b6112f3612dcf565b565b7f000000000000000000000000000000000000000000000000000000000000000081565b60008060009054906101000a900473ffffffffffffffffffffffffffffffffffffffff16905090565b61134a61250f565b6000611354612e32565b905060008111611399576040517f08c379a000000000000000000000000000000000000000000000000000000000815260040161139090613d86565b60405180910390fd5b506113a2612b51565b565b6113ac61250f565b6113b4612fe4565b6000801b81036113f9576040517f08c379a00000000000000000000000000000000000000000000000000000000081526004016113f090613df2565b60405180910390fd5b6008600082815260200190815260200160002060009054906101000a900460ff161561145a576040517f08c379a000000000000000000000000000000000000000000000000000000000815260040161145190613e5e565b60405180910390fd5b60016008600083815260200190815260200160002060006101000a81548160ff021916908315150217905550600260099054906101000a900460ff16156114d6576040517f08c379a00000000000000000000000000000000000000000000000000000000081526004016114cd90613eca565b60405180910390fd5b6114de612555565b6000600260009054906101000a900460ff1690506000600460008360ff1660ff16815260200190815260200160002090508060050160009054906101000a900467ffffffffffffffff1667ffffffffffffffff16421015611574576040517f08c379a000000000000000000000000000000000000000000000000000000000815260040161156b90613f36565b60405180910390fd5b8060050160089054906101000a900467ffffffffffffffff1667ffffffffffffffff164211156115d9576040517f08c379a00000000000000000000000000000000000000000000000000000000081526004016115d090613fa2565b60405180910390fd5b8060050160109054906101000a900460ff161561162b576040517f08c379a00000000000000000000000000000000000000000000000000000000081526004016116229061400e565b60405180910390fd5b6302faf080841015611672576040517f08c379a00000000000000000000000000000000000000000000000000000000081526004016116699061407a565b60405180910390fd5b600084600a60008560ff1660ff16815260200190815260200160002060003373ffffffffffffffffffffffffffffffffffffffff1673ffffffffffffffffffffffffffffffffffffffff168152602001908152602001600020546116d69190613aeb565b905064012a05f200811115611720576040517f08c379a0000000000000000000000000000000000000000000000000000000008152600401611717906140e6565b60405180910390fd5b60008260000154670de0b6b3a76400008761173b9190614106565b6117459190614177565b90506000811161178a576040517f08c379a0000000000000000000000000000000000000000000000000000000008152600401611781906141f4565b60405180910390fd5b826003015481846004015461179f9190613aeb565b11156117e0576040517f08c379a00000000000000000000000000000000000000000000000000000000081526004016117d790614260565b60405180910390fd5b81600a60008660ff1660ff16815260200190815260200160002060003373ffffffffffffffffffffffffffffffffffffffff1673ffffffffffffffffffffffffffffffffffffffff168152602001908152602001600020819055508083600401600082825461184f9190613aeb565b9250508190555080600560003373ffffffffffffffffffffffffffffffffffffffff1673ffffffffffffffffffffffffffffffffffffffff16815260200190815260200160002060008282546118a59190613aeb565b9250508190555080600b60008282546118be9190613aeb565b9250508190555060006002826118d49190614177565b9050600081836118e49190613973565b905081600660003373ffffffffffffffffffffffffffffffffffffffff1673ffffffffffffffffffffffffffffffffffffffff16815260200190815260200160002060008282546119359190613aeb565b9250508190555081600c600082825461194e9190613aeb565b9250508190555080600d60008282546119679190613aeb565b92505081905550600960003373ffffffffffffffffffffffffffffffffffffffff1673ffffffffffffffffffffffffffffffffffffffff1681526020019081526020016000206040518060a001604052804267ffffffffffffffff1681526020018860ff1681526020018581526020018a815260200189815250908060018154018082558091505060019003906000526020600020906004020160009091909190915060008201518160000160006101000a81548167ffffffffffffffff021916908367ffffffffffffffff16021790555060208201518160000160086101000a81548160ff021916908360ff1602179055506040820151816001015560608201518160020155608082015181600301555050611ac733308a7f000000000000000000000000000000000000000000000000000000000000000073ffffffffffffffffffffffffffffffffffffffff16613025909392919063ffffffff16565b611acf612e32565b508560ff163373ffffffffffffffffffffffffffffffffffffffff167f8f42aa16a6cf242411a12d1f3cdaee60b130d68450c70e7af7801c07ff2ed603858b60018c604051611b21949392919061428f565b60405180910390a3611b31612555565b505050505050611b3f612b51565b5050565b600260019054906101000a900467ffffffffffffffff1681565b600080600080600080600080600080600460008c60ff1660ff1681526020019081526020016000206040518061010001604052908160008201548152602001600182015481526020016002820154815260200160038201548152602001600482015481526020016005820160009054906101000a900467ffffffffffffffff1667ffffffffffffffff1667ffffffffffffffff1681526020016005820160089054906101000a900467ffffffffffffffff1667ffffffffffffffff1667ffffffffffffffff1681526020016005820160109054906101000a900460ff161515151581525050905080600001519950806020015198508060400151975080606001519650806080015195508060a0015194508060c0015193508060e001519150600260099054906101000a900460ff16158015611ca55750611c9c612c1e565b60ff168b60ff16145b8015611cbf57508060a0015167ffffffffffffffff164210155b8015611ccd57508060e00151155b9250509193959799909294969850565b6402540be40081565b600260099054906101000a900460ff1681565b600b5481565b6000806000806000600354600c54611d179190613973565b9450600c546a54b40b1f852bda00000000611d329190613973565b93508385611d409190613aeb565b92507f000000000000000000000000000000000000000000000000000000000000000073ffffffffffffffffffffffffffffffffffffffff166370a08231306040518263ffffffff1660e01b8152600401611d9b919061348d565b602060405180830381865afa158015611db8573d6000803e3d6000fd5b505050506040513d601f19601f82011682018060405250810190611ddc9190613b34565b915082821015611df7578183611df29190613973565b611dfa565b60005b90509091929394565b60076020528060005260406000206000915090505481565b600080611e66600660008573ffffffffffffffffffffffffffffffffffffffff1673ffffffffffffffffffffffffffffffffffffffff168152602001908152602001600020546122b5565b90506000600660008573ffffffffffffffffffffffffffffffffffffffff1673ffffffffffffffffffffffffffffffffffffffff168152602001908152602001600020549050818111611eba576000611ec7565b8181611ec69190613973565b5b92505050919050565b60035481565b7f000000000000000000000000000000000000000000000000000000000000000081565b60066020528060005260406000206000915090505481565b60606000600960008673ffffffffffffffffffffffffffffffffffffffff1673ffffffffffffffffffffffffffffffffffffffff1681526020019081526020016000209050600081805490509050808510611fc557600067ffffffffffffffff811115611f8257611f816142d4565b5b604051908082528060200260200182016040528015611fbb57816020015b611fa8613191565b815260200190600190039081611fa05790505b5092505050612130565b60008486611fd39190613aeb565b905081811115611fe1578190505b60008682611fef9190613973565b67ffffffffffffffff811115612008576120076142d4565b5b60405190808252806020026020018201604052801561204157816020015b61202e613191565b8152602001906001900390816120265790505b50905060008790505b828110156121275784818154811061206557612064614303565b5b90600052602060002090600402016040518060a00160405290816000820160009054906101000a900467ffffffffffffffff1667ffffffffffffffff1667ffffffffffffffff1681526020016000820160089054906101000a900460ff1660ff1660ff16815260200160018201548152602001600282015481526020016003820154815250508289836120f89190613973565b8151811061210957612108614303565b5b6020026020010181905250808061211f90614332565b91505061204a565b50809450505050505b9392505050565b6a54b40b1f852bda0000000081565b61214e6121cc565b600073ffffffffffffffffffffffffffffffffffffffff168173ffffffffffffffffffffffffffffffffffffffff16036121c05760006040517f1e4fbdf70000000000000000000000000000000000000000000000000000000081526004016121b7919061348d565b60405180910390fd5b6121c981612b5a565b50565b6121d46130a7565b73ffffffffffffffffffffffffffffffffffffffff166121f2611319565b73ffffffffffffffffffffffffffffffffffffffff1614612251576122156130a7565b6040517f118cdaa7000000000000000000000000000000000000000000000000000000008152600401612248919061348d565b60405180910390fd5b565b61225b6130af565b60008060146101000a81548160ff0219169083151502179055507f5db9ee0a495bf2e6ff9c91a7834c1ba4fdd244a5e8aa4e537bd38aeae4b073aa61229e6130a7565b6040516122ab919061348d565b60405180910390a1565b60008082036122c7576000905061250a565b6000600260019054906101000a900467ffffffffffffffff1667ffffffffffffffff1614806123155750600260019054906101000a900467ffffffffffffffff1667ffffffffffffffff1642105b15612323576000905061250a565b60006064600a846123349190614106565b61233e9190614177565b90506000600260019054906101000a900467ffffffffffffffff1667ffffffffffffffff164261236e9190613973565b905062ed4e008110156123c45762ed4e00606461238b9190614106565b81602d866123999190614106565b6123a39190614106565b6123ad9190614177565b826123b89190613aeb565b9150819250505061250a565b6064602d856123d39190614106565b6123dd9190614177565b826123e89190613aeb565b915062ed4e0060026123fa9190614106565b81101561245e57600062ed4e00826124129190613973565b905062ed4e0060646124249190614106565b81601e876124329190614106565b61243c9190614106565b6124469190614177565b836124519190613aeb565b925082935050505061250a565b6064601e8561246d9190614106565b6124779190614177565b826124829190613aeb565b915062ed4e0060036124949190614106565b81101561250457600062ed4e0060026124ad9190614106565b826124b89190613973565b905062ed4e0060646124ca9190614106565b81600f876124d89190614106565b6124e29190614106565b6124ec9190614177565b836124f79190613aeb565b925082935050505061250a565b83925050505b919050565b60026001540361254b576040517f3ee5aeb500000000000000000000000000000000000000000000000000000000815260040160405180910390fd5b6002600181905550565b600060046000600260009054906101000a900460ff1660ff1660ff16815260200190815260200160002090508060030154816004015411156125cc576040517f08c379a00000000000000000000000000000000000000000000000000000000081526004016125c3906143c6565b60405180910390fd5b600081600401548260030154116125e45760006125f9565b816004015482600301546125f89190613973565b5b905060006001600260009054906101000a900460ff1661261991906143e6565b9050602860ff168160ff161161267e576000600460008360ff1660ff16815260200190815260200160002090508281600201600082825461265a9190613aeb565b92505081905550828160030160008282546126759190613aeb565b92505081905550505b5050505b600260099054906101000a900460ff161580156126b55750602860ff16600260009054906101000a900460ff1660ff1611155b15612ad057600060046000600260009054906101000a900460ff1660ff1660ff16815260200190815260200160002090506000816003015482600401541015905060008260050160089054906101000a900467ffffffffffffffff1667ffffffffffffffff16421190508115801561272b575080155b1561273857505050612ad0565b8260050160109054906101000a900460ff161561275757505050612ad0565b60018360050160106101000a81548160ff021916908315150217905550602860ff16600260009054906101000a900460ff1660ff160361279957505050612ad0565b60006001600260009054906101000a900460ff166127b791906143e6565b9050600084600401548560030154116127d15760006127e6565b846004015485600301546127e59190613973565b5b905060008461280d578560050160089054906101000a900467ffffffffffffffff1661280f565b425b905060006205a00082612822919061441b565b90506000600460008660ff1660ff168152602001908152602001600020905060008160050160009054906101000a900467ffffffffffffffff1667ffffffffffffffff160361295657600e60018661287a9190614457565b60ff166028811061288e5761288d614303565b5b015481600001819055506a021e19e0c9bab2400000008160010181905550838160020181905550836a021e19e0c9bab2400000006128cc9190613aeb565b816003018190555060008160040181905550828160050160006101000a81548167ffffffffffffffff021916908367ffffffffffffffff160217905550818160050160086101000a81548167ffffffffffffffff021916908367ffffffffffffffff16021790555060008160050160106101000a81548160ff021916908315150217905550612a17565b8381600201600082825461296a9190613aeb565b92505081905550838160030160008282546129859190613aeb565b925050819055508680156129ba57508060050160009054906101000a900467ffffffffffffffff1667ffffffffffffffff1642105b15612a1657828160050160006101000a81548167ffffffffffffffff021916908367ffffffffffffffff160217905550818160050160086101000a81548167ffffffffffffffff021916908367ffffffffffffffff1602179055505b5b8460ff16600260009054906101000a900460ff1660ff167f5b7d098450624d2806200edeb2d8b4effe5894095a59888d04b72ce93665e23786604051612a5d9190613220565b60405180910390a38460ff16600260009054906101000a900460ff1660ff167f9690042c0c4bfe05b659aa625d476c1887a5644ef6a2fde059bbaaa7388fed6160405160405180910390a384600260006101000a81548160ff021916908360ff1602179055505050505050505050612682565b565b612b4c838473ffffffffffffffffffffffffffffffffffffffff1663a9059cbb8585604051602401612b0592919061448c565b604051602081830303815290604052915060e01b6020820180517bffffffffffffffffffffffffffffffffffffffffffffffffffffffff83818316178352505050506130ef565b505050565b60018081905550565b60008060009054906101000a900473ffffffffffffffffffffffffffffffffffffffff169050816000806101000a81548173ffffffffffffffffffffffffffffffffffffffff021916908373ffffffffffffffffffffffffffffffffffffffff1602179055508173ffffffffffffffffffffffffffffffffffffffff168173ffffffffffffffffffffffffffffffffffffffff167f8be0079c531659141344cd1fd0a4f28419497f9722a3daafe3b4186f6b6457e060405160405180910390a35050565b600080600260009054906101000a900460ff1690505b602860ff168160ff1611612db8576000600460008360ff1660ff1681526020019081526020016000206040518061010001604052908160008201548152602001600182015481526020016002820154815260200160038201548152602001600482015481526020016005820160009054906101000a900467ffffffffffffffff1667ffffffffffffffff1667ffffffffffffffff1681526020016005820160089054906101000a900467ffffffffffffffff1667ffffffffffffffff1667ffffffffffffffff1681526020016005820160109054906101000a900460ff161515151581525050905060008160a0015167ffffffffffffffff1603612d385750612db8565b6000816060015182608001511015905060008260c0015167ffffffffffffffff16421190508260e00151158015612d6d575081155b8015612d77575080155b15612d885783945050505050612dcc565b602860ff168460ff1603612da25783945050505050612dcc565b8380612dad906144b5565b945050505050612c34565b600260009054906101000a900460ff169150505b90565b612dd7612fe4565b6001600060146101000a81548160ff0219169083151502179055507f62e78cea01bee320cd4e420270b5ea74000d11b0c9f74754ebdbfc544b05a258612e1b6130a7565b604051612e28919061348d565b60405180910390a1565b6000807f000000000000000000000000000000000000000000000000000000000000000073ffffffffffffffffffffffffffffffffffffffff166370a08231306040518263ffffffff1660e01b8152600401612e8e919061348d565b602060405180830381865afa158015612eab573d6000803e3d6000fd5b505050506040513d601f19601f82011682018060405250810190612ecf9190613b34565b90506402540be400811015612ee8576000915050612fe1565b6402540be4008082612efa9190614177565b612f049190614106565b9150612f717f0000000000000000000000000000000000000000000000000000000000000000837f000000000000000000000000000000000000000000000000000000000000000073ffffffffffffffffffffffffffffffffffffffff16612ad29092919063ffffffff16565b7f000000000000000000000000000000000000000000000000000000000000000073ffffffffffffffffffffffffffffffffffffffff167f2abb9340465b010db98fa53f314984d6f6e96b8da507de6c08413b5ca70bc6d283604051612fd79190613220565b60405180910390a2505b90565b612fec611253565b15613023576040517fd93c066500000000000000000000000000000000000000000000000000000000815260040160405180910390fd5b565b6130a1848573ffffffffffffffffffffffffffffffffffffffff166323b872dd86868660405160240161305a939291906144de565b604051602081830303815290604052915060e01b6020820180517bffffffffffffffffffffffffffffffffffffffffffffffffffffffff83818316178352505050506130ef565b50505050565b600033905090565b6130b7611253565b6130ed576040517f8dfc202b00000000000000000000000000000000000000000000000000000000815260040160405180910390fd5b565b600080602060008451602086016000885af180613112576040513d6000823e3d81fd5b3d92506000519150506000821461312d576001811415613149565b60008473ffffffffffffffffffffffffffffffffffffffff163b145b1561318b57836040517f5274afe7000000000000000000000000000000000000000000000000000000008152600401613182919061348d565b60405180910390fd5b50505050565b6040518060a00160405280600067ffffffffffffffff168152602001600060ff1681526020016000815260200160008152602001600080191681525090565b600060ff82169050919050565b6131e6816131d0565b82525050565b600060208201905061320160008301846131dd565b92915050565b6000819050919050565b61321a81613207565b82525050565b60006020820190506132356000830184613211565b92915050565b600067ffffffffffffffff82169050919050565b6132588161323b565b82525050565b6000602082019050613273600083018461324f565b92915050565b600073ffffffffffffffffffffffffffffffffffffffff82169050919050565b6000819050919050565b60006132be6132b96132b484613279565b613299565b613279565b9050919050565b60006132d0826132a3565b9050919050565b60006132e2826132c5565b9050919050565b6132f2816132d7565b82525050565b600060208201905061330d60008301846132e9565b92915050565b600080fd5b6133218161323b565b811461332c57600080fd5b50565b60008135905061333e81613318565b92915050565b60006020828403121561335a57613359613313565b5b60006133688482850161332f565b91505092915050565b600061337c82613279565b9050919050565b61338c81613371565b811461339757600080fd5b50565b6000813590506133a981613383565b92915050565b6000602082840312156133c5576133c4613313565b5b60006133d38482850161339a565b91505092915050565b6133e5816131d0565b81146133f057600080fd5b50565b600081359050613402816133dc565b92915050565b6000806040838503121561341f5761341e613313565b5b600061342d858286016133f3565b925050602061343e8582860161339a565b9150509250929050565b60008115159050919050565b61345d81613448565b82525050565b60006020820190506134786000830184613454565b92915050565b61348781613371565b82525050565b60006020820190506134a2600083018461347e565b92915050565b60006134b3826132c5565b9050919050565b6134c3816134a8565b82525050565b60006020820190506134de60008301846134ba565b92915050565b6134ed81613207565b81146134f857600080fd5b50565b60008135905061350a816134e4565b92915050565b6000819050919050565b61352381613510565b811461352e57600080fd5b50565b6000813590506135408161351a565b92915050565b6000806040838503121561355d5761355c613313565b5b600061356b858286016134fb565b925050602061357c85828601613531565b9150509250929050565b60006020828403121561359c5761359b613313565b5b60006135aa848285016133f3565b91505092915050565b6000610120820190506135c9600083018c613211565b6135d6602083018b613211565b6135e3604083018a613211565b6135f06060830189613211565b6135fd6080830188613211565b61360a60a083018761324f565b61361760c083018661324f565b61362460e0830185613454565b613632610100830184613454565b9a9950505050505050505050565b600060a0820190506136556000830188613211565b6136626020830187613211565b61366f6040830186613211565b61367c6060830185613211565b6136896080830184613211565b9695505050505050565b6000806000606084860312156136ac576136ab613313565b5b60006136ba8682870161339a565b93505060206136cb868287016134fb565b92505060406136dc868287016134fb565b9150509250925092565b600081519050919050565b600082825260208201905092915050565b6000819050602082019050919050565b61371b8161323b565b82525050565b61372a816131d0565b82525050565b61373981613207565b82525050565b61374881613510565b82525050565b60a0820160008201516137646000850182613712565b5060208201516137776020850182613721565b50604082015161378a6040850182613730565b50606082015161379d6060850182613730565b5060808201516137b0608085018261373f565b50505050565b60006137c2838361374e565b60a08301905092915050565b6000602082019050919050565b60006137e6826136e6565b6137f081856136f1565b93506137fb83613702565b8060005b8381101561382c57815161381388826137b6565b975061381e836137ce565b9250506001810190506137ff565b5085935050505092915050565b6000602082019050818103600083015261385381846137db565b905092915050565b600082825260208201905092915050565b7f54474520616c7265616479207365740000000000000000000000000000000000600082015250565b60006138a2600f8361385b565b91506138ad8261386c565b602082019050919050565b600060208201905081810360008301526138d181613895565b9050919050565b7f54474520696e2070617374000000000000000000000000000000000000000000600082015250565b600061390e600b8361385b565b9150613919826138d8565b602082019050919050565b6000602082019050818103600083015261393d81613901565b9050919050565b7f4e487b7100000000000000000000000000000000000000000000000000000000600052601160045260246000fd5b600061397e82613207565b915061398983613207565b92508282039050818111156139a1576139a0613944565b5b92915050565b7f616c72656164792066696e616c697a6564000000000000000000000000000000600082015250565b60006139dd60118361385b565b91506139e8826139a7565b602082019050919050565b60006020820190508181036000830152613a0c816139d0565b9050919050565b7f6e6f74206c617374206261746368000000000000000000000000000000000000600082015250565b6000613a49600e8361385b565b9150613a5482613a13565b602082019050919050565b60006020820190508181036000830152613a7881613a3c565b9050919050565b7f6c61737420626174636820616374697665000000000000000000000000000000600082015250565b6000613ab560118361385b565b9150613ac082613a7f565b602082019050919050565b60006020820190508181036000830152613ae481613aa8565b9050919050565b6000613af682613207565b9150613b0183613207565b9250828201905080821115613b1957613b18613944565b5b92915050565b600081519050613b2e816134e4565b92915050565b600060208284031215613b4a57613b49613313565b5b6000613b5884828501613b1f565b91505092915050565b7f696e73756666696369656e742044444320666f722066696e616c697a65000000600082015250565b6000613b97601d8361385b565b9150613ba282613b61565b602082019050919050565b60006020820190508181036000830152613bc681613b8a565b9050919050565b6000604082019050613be26000830185613211565b613bef6020830184613211565b9392505050565b7f6e6f7468696e6720636c61696d61626c65000000000000000000000000000000600082015250565b6000613c2c60118361385b565b9150613c3782613bf6565b602082019050919050565b60006020820190508181036000830152613c5b81613c1f565b9050919050565b7f6e6f742074726561737572790000000000000000000000000000000000000000600082015250565b6000613c98600c8361385b565b9150613ca382613c62565b602082019050919050565b60006020820190508181036000830152613cc781613c8b565b9050919050565b7f6e6f742066696e616c697a656400000000000000000000000000000000000000600082015250565b6000613d04600d8361385b565b9150613d0f82613cce565b602082019050919050565b60006020820190508181036000830152613d3381613cf7565b9050919050565b7f7468726573686f6c64206e6f7420726561636865640000000000000000000000600082015250565b6000613d7060158361385b565b9150613d7b82613d3a565b602082019050919050565b60006020820190508181036000830152613d9f81613d63565b9050919050565b7f7478496420726571756972656400000000000000000000000000000000000000600082015250565b6000613ddc600d8361385b565b9150613de782613da6565b602082019050919050565b60006020820190508181036000830152613e0b81613dcf565b9050919050565b7f7478496420757365640000000000000000000000000000000000000000000000600082015250565b6000613e4860098361385b565b9150613e5382613e12565b602082019050919050565b60006020820190508181036000830152613e7781613e3b565b9050919050565b7f66696e616c697a65640000000000000000000000000000000000000000000000600082015250565b6000613eb460098361385b565b9150613ebf82613e7e565b602082019050919050565b60006020820190508181036000830152613ee381613ea7565b9050919050565b7f6261746368206e6f742073746172746564000000000000000000000000000000600082015250565b6000613f2060118361385b565b9150613f2b82613eea565b602082019050919050565b60006020820190508181036000830152613f4f81613f13565b9050919050565b7f626174636820656e646564000000000000000000000000000000000000000000600082015250565b6000613f8c600b8361385b565b9150613f9782613f56565b602082019050919050565b60006020820190508181036000830152613fbb81613f7f565b9050919050565b7f626174636820636c6f7365640000000000000000000000000000000000000000600082015250565b6000613ff8600c8361385b565b915061400382613fc2565b602082019050919050565b6000602082019050818103600083015261402781613feb565b9050919050565b7f62656c6f77206d696e0000000000000000000000000000000000000000000000600082015250565b600061406460098361385b565b915061406f8261402e565b602082019050919050565b6000602082019050818103600083015261409381614057565b9050919050565b7f61626f7665206d61780000000000000000000000000000000000000000000000600082015250565b60006140d060098361385b565b91506140db8261409a565b602082019050919050565b600060208201905081810360008301526140ff816140c3565b9050919050565b600061411182613207565b915061411c83613207565b925082820261412a81613207565b9150828204841483151761414157614140613944565b5b5092915050565b7f4e487b7100000000000000000000000000000000000000000000000000000000600052601260045260246000fd5b600061418282613207565b915061418d83613207565b92508261419d5761419c614148565b5b828204905092915050565b7f7a65726f20707572636861736500000000000000000000000000000000000000600082015250565b60006141de600d8361385b565b91506141e9826141a8565b602082019050919050565b6000602082019050818103600083015261420d816141d1565b9050919050565b7f6861726420636170000000000000000000000000000000000000000000000000600082015250565b600061424a60088361385b565b915061425582614214565b602082019050919050565b600060208201905081810360008301526142798161423d565b9050919050565b61428981613510565b82525050565b60006080820190506142a46000830187613211565b6142b16020830186613211565b6142be6040830185613454565b6142cb6060830184614280565b95945050505050565b7f4e487b7100000000000000000000000000000000000000000000000000000000600052604160045260246000fd5b7f4e487b7100000000000000000000000000000000000000000000000000000000600052603260045260246000fd5b600061433d82613207565b91507fffffffffffffffffffffffffffffffffffffffffffffffffffffffffffffffff820361436f5761436e613944565b5b600182019050919050565b7f696e76616c696420626174636820737461746500000000000000000000000000600082015250565b60006143b060138361385b565b91506143bb8261437a565b602082019050919050565b600060208201905081810360008301526143df816143a3565b9050919050565b60006143f1826131d0565b91506143fc836131d0565b9250828201905060ff81111561441557614414613944565b5b92915050565b60006144268261323b565b91506144318361323b565b9250828201905067ffffffffffffffff81111561445157614450613944565b5b92915050565b6000614462826131d0565b915061446d836131d0565b9250828203905060ff81111561448657614485613944565b5b92915050565b60006040820190506144a1600083018561347e565b6144ae6020830184613211565b9392505050565b60006144c0826131d0565b915060ff82036144d3576144d2613944565b5b600182019050919050565b60006060820190506144f3600083018661347e565b614500602083018561347e565b61450d6040830184613211565b94935050505056fea264697066735822122048f500229c4de2c862c35665b4dac451a9a9c37aa05c68d0b5f34544c806923a64736f6c63430008140033",
  "linkReferences": {},
  "deployedLinkReferences": {}
}