{
  "_format": "hh-sol-artifact-1",
  "contractName": "DDCRewardPool",
  "sourceName": "contracts/DDCRewardPool.sol",
  "abi": [
    {
      "inputs": [
        {
          "internalType": "address",
          "name": "ddcToken",
          "type": "address"
        },
        {
          "internalType": "address",
          "name": "presaleVestingContract",
          "type": "address"
        },
        {
          "internalType": "uint256",
          "name": "initialPresaleBurnAccounted",
          "type": "uint256"
        }
      ],
      "stateMutability": "nonpayable",
      "type": "constructor"
    },
    {
      "inputs": [],
      "name": "NotPresale",
      "type": "error"
    },
    {
      "inputs": [],
      "name": "ZeroAmount",
      "type": "error"
    },
    {
      "anonymous": false,
      "inputs": [
        {
          "indexed": false,
          "internalType": "uint256",
          "name": "newTotal",
          "type": "uint256"
        }
      ],
      "name": "PresaleBurnAccountedUpdated",
      "type": "event"
    },
    {
      "anonymous": false,
      "inputs": [
        {
          "indexed": false,
          "internalType": "uint256",
          "name": "burnLockedAdded",
          "type": "uint256"
        },
        {
          "indexed": false,
          "internalType": "uint256",
          "name": "rewardEligibleAdded",
          "type": "uint256"
        }
      ],
      "name": "PresaleReconciled",
      "type": "event"
    },
    {
      "anonymous": false,
      "inputs": [
        {
          "indexed": false,
          "internalType": "uint256",
          "name": "amount",
          "type": "uint256"
        }
      ],
      "name": "UnsoldReceived",
      "type": "event"
    },
    {
      "inputs": [],
      "name": "PRESALE_BURN_TARGET",
      "outputs": [
        {
          "internalType": "uint256",
          "name": "",
          "type": "uint256"
        }
      ],
      "stateMutability": "view",
      "type": "function"
    },
    {
      "inputs": [],
      "name": "burnLocked",
      "outputs": [
        {
          "internalType": "uint256",
          "name": "",
          "type": "uint256"
        }
      ],
      "stateMutability": "view",
      "type": "function"
    },
    {
      "inputs": [],
      "name": "ddc",
      "outputs": [
        {
          "internalType": "contract IERC20",
          "name": "",
          "type": "address"
        }
      ],
      "stateMutability": "view",
      "type": "function"
    },
    {
      "inputs": [],
      "name": "presaleBurnAccounted",
      "outputs": [
        {
          "internalType": "uint256",
          "name": "",
          "type": "uint256"
        }
      ],
      "stateMutability": "view",
      "type": "function"
    },
    {
      "inputs": [],
      "name": "presaleVesting",
      "outputs": [
        {
          "internalType": "address",
          "name": "",
          "type": "address"
        }
      ],
      "stateMutability": "view",
      "type": "function"
    },
    {
      "inputs": [
        {
          "internalType": "uint256",
          "name": "amount",
          "type": "uint256"
        }
      ],
      "name": "receiveUnsoldFromPresale",
      "outputs": [],
      "stateMutability": "nonpayable",
      "type": "function"
    },
    {
      "inputs": [],
      "name": "remainingPresaleBurnNeed",
      "outputs": [
        {
          "internalType": "uint256",
          "name": "",
          "type": "uint256"
        }
      ],
      "stateMutability": "view",
      "type": "function"
    },
    {
      "inputs": [],
      "name": "rewardEligible",
      "outputs": [
        {
          "internalType": "uint256",
          "name": "",
          "type": "uint256"
        }
      ],
      "stateMutability": "view",
      "type": "function"
    }
  ],
  "bytecode": "0x60c060405234801561001057600080fd5b50604051610a56380380610a5683398181016040528101906100329190610142565b8273ffffffffffffffffffffffffffffffffffffffff1660808173ffffffffffffffffffffffffffffffffffffffff16815250508173ffffffffffffffffffffffffffffffffffffffff1660a08173ffffffffffffffffffffffffffffffffffffffff168152505080600081905550505050610195565b600080fd5b600073ffffffffffffffffffffffffffffffffffffffff82169050919050565b60006100d9826100ae565b9050919050565b6100e9816100ce565b81146100f457600080fd5b50565b600081519050610106816100e0565b92915050565b6000819050919050565b61011f8161010c565b811461012a57600080fd5b50565b60008151905061013c81610116565b92915050565b60008060006060848603121561015b5761015a6100a9565b5b6000610169868287016100f7565b935050602061017a868287016100f7565b925050604061018b8682870161012d565b9150509250925092565b60805160a05161088e6101c860003960008181610183015261047801526000818161024201526104ef015261088e6000f3fe608060405234801561001057600080fd5b50600436106100885760003560e01c80634e3c45ae1161005b5780634e3c45ae146101035780636be4904e146101215780638a99667a1461013f578063b44526c21461015d57610088565b80630ad2cb391461008d5780631fe267fe146100ab5780633e8c15df146100c75780634d3ef8dd146100e5575b600080fd5b61009561017b565b6040516100a29190610530565b60405180910390f35b6100c560048036038101906100c0919061057c565b610181565b005b6100cf610476565b6040516100dc91906105ea565b60405180910390f35b6100ed61049a565b6040516100fa9190610530565b60405180910390f35b61010b6104a0565b6040516101189190610530565b60405180910390f35b6101296104af565b6040516101369190610530565b60405180910390f35b6101476104ed565b6040516101549190610664565b60405180910390f35b610165610511565b6040516101729190610530565b60405180910390f35b60005481565b7f000000000000000000000000000000000000000000000000000000000000000073ffffffffffffffffffffffffffffffffffffffff163373ffffffffffffffffffffffffffffffffffffffff1614610206576040517f310a594a00000000000000000000000000000000000000000000000000000000815260040160405180910390fd5b60008103610240576040517f1f2a200500000000000000000000000000000000000000000000000000000000815260040160405180910390fd5b7f000000000000000000000000000000000000000000000000000000000000000073ffffffffffffffffffffffffffffffffffffffff166323b872dd3330846040518463ffffffff1660e01b815260040161029d9392919061067f565b6020604051808303816000875af11580156102bc573d6000803e3d6000fd5b505050506040513d601f19601f820116820180604052508101906102e091906106ee565b61031f576040517f08c379a000000000000000000000000000000000000000000000000000000000815260040161031690610778565b60405180910390fd5b7fb6b87ae46fe7cd1c1bf2ba1c4b24ac6a82c327ba0ea70658124c7ad6fe559eb48160405161034e9190610530565b60405180910390a160006a2a5a058fc295ed00000000600054101561038b576000546a2a5a058fc295ed0000000061038691906107c7565b61038e565b60005b90506000818311156103a057816103a2565b825b9050600081846103b291906107c7565b905081600160008282546103c691906107fb565b9250508190555080600260008282546103df91906107fb565b92505081905550816000808282546103f791906107fb565b925050819055507fea2fc4393980f271501cf1af9670ad4dc1157882043593e2dcf7ac84b6b60fcf828260405161042f92919061082f565b60405180910390a17f37ca46565018a5def6616a33aec172dfcb4acd47afc898ca4b21657b2b5580236000546040516104689190610530565b60405180910390a150505050565b7f000000000000000000000000000000000000000000000000000000000000000081565b60015481565b6a2a5a058fc295ed0000000081565b60006a2a5a058fc295ed00000000600054106104ce57600090506104ea565b6000546a2a5a058fc295ed000000006104e791906107c7565b90505b90565b7f000000000000000000000000000000000000000000000000000000000000000081565b60025481565b6000819050919050565b61052a81610517565b82525050565b60006020820190506105456000830184610521565b92915050565b600080fd5b61055981610517565b811461056457600080fd5b50565b60008135905061057681610550565b92915050565b6000602082840312156105925761059161054b565b5b60006105a084828501610567565b91505092915050565b600073ffffffffffffffffffffffffffffffffffffffff82169050919050565b60006105d4826105a9565b9050919050565b6105e4816105c9565b82525050565b60006020820190506105ff60008301846105db565b92915050565b6000819050919050565b600061062a610625610620846105a9565b610605565b6105a9565b9050919050565b600061063c8261060f565b9050919050565b600061064e82610631565b9050919050565b61065e81610643565b82525050565b60006020820190506106796000830184610655565b92915050565b600060608201905061069460008301866105db565b6106a160208301856105db565b6106ae6040830184610521565b949350505050565b60008115159050919050565b6106cb816106b6565b81146106d657600080fd5b50565b6000815190506106e8816106c2565b92915050565b6000602082840312156107045761070361054b565b5b6000610712848285016106d9565b91505092915050565b600082825260208201905092915050565b7f7472616e7366657246726f6d206661696c656400000000000000000000000000600082015250565b600061076260138361071b565b915061076d8261072c565b602082019050919050565b6000602082019050818103600083015261079181610755565b9050919050565b7f4e487b7100000000000000000000000000000000000000000000000000000000600052601160045260246000fd5b60006107d282610517565b91506107dd83610517565b92508282039050818111156107f5576107f4610798565b5b92915050565b600061080682610517565b915061081183610517565b925082820190508082111561082957610828610798565b5b92915050565b60006040820190506108446000830185610521565b6108516020830184610521565b939250505056fea264697066735822122073ad7c4d2dd975d9e240adfa59ec9ebdfe42fff0f6774224b3376c2fd9193b5e64736f6c63430008140033",
  "linkReferences": {},
  "deployedLinkReferences": {}
}