{
  "_format": "hh-sol-artifact-1",
  "contractName": "DDCVestingVault",
  "sourceName": "contracts/DDCVestingVault.sol",
  "abi": [
    {
      "inputs": [
        {
          "internalType": "contract IERC20",
          "name": "_ddcToken",
          "type": "address"
        }
      ],
      "stateMutability": "nonpayable",
      "type": "constructor"
    },
    {
      "inputs": [],
      "name": "InvalidParam",
      "type": "error"
    },
    {
      "inputs": [],
      "name": "NotAuthorized",
      "type": "error"
    },
    {
      "inputs": [
        {
          "internalType": "address",
          "name": "owner",
          "type": "address"
        }
      ],
      "name": "OwnableInvalidOwner",
      "type": "error"
    },
    {
      "inputs": [
        {
          "internalType": "address",
          "name": "account",
          "type": "address"
        }
      ],
      "name": "OwnableUnauthorizedAccount",
      "type": "error"
    },
    {
      "inputs": [],
      "name": "ReentrancyGuardReentrantCall",
      "type": "error"
    },
    {
      "inputs": [],
      "name": "TgeNotSet",
      "type": "error"
    },
    {
      "inputs": [],
      "name": "TransferFailed",
      "type": "error"
    },
    {
      "anonymous": false,
      "inputs": [
        {
          "indexed": true,
          "internalType": "address",
          "name": "previousOwner",
          "type": "address"
        },
        {
          "indexed": true,
          "internalType": "address",
          "name": "newOwner",
          "type": "address"
        }
      ],
      "name": "OwnershipTransferred",
      "type": "event"
    },
    {
      "inputs": [
        {
          "internalType": "enum DDCVestingVault.Category",
          "name": "cat",
          "type": "uint8"
        },
        {
          "internalType": "address",
          "name": "user",
          "type": "address"
        },
        {
          "internalType": "uint256",
          "name": "amount",
          "type": "uint256"
        }
      ],
      "name": "addAllocation",
      "outputs": [],
      "stateMutability": "nonpayable",
      "type": "function"
    },
    {
      "inputs": [
        {
          "internalType": "address",
          "name": "",
          "type": "address"
        },
        {
          "internalType": "enum DDCVestingVault.Category",
          "name": "",
          "type": "uint8"
        }
      ],
      "name": "allocators",
      "outputs": [
        {
          "internalType": "bool",
          "name": "",
          "type": "bool"
        }
      ],
      "stateMutability": "view",
      "type": "function"
    },
    {
      "inputs": [],
      "name": "claimPresale",
      "outputs": [
        {
          "internalType": "uint256",
          "name": "claimedNow",
          "type": "uint256"
        }
      ],
      "stateMutability": "nonpayable",
      "type": "function"
    },
    {
      "inputs": [
        {
          "internalType": "address",
          "name": "user",
          "type": "address"
        }
      ],
      "name": "claimPresaleFor",
      "outputs": [
        {
          "internalType": "uint256",
          "name": "claimedNow",
          "type": "uint256"
        }
      ],
      "stateMutability": "nonpayable",
      "type": "function"
    },
    {
      "inputs": [
        {
          "internalType": "address",
          "name": "presale",
          "type": "address"
        }
      ],
      "name": "configurePresale",
      "outputs": [],
      "stateMutability": "nonpayable",
      "type": "function"
    },
    {
      "inputs": [],
      "name": "ddcToken",
      "outputs": [
        {
          "internalType": "contract IERC20",
          "name": "",
          "type": "address"
        }
      ],
      "stateMutability": "view",
      "type": "function"
    },
    {
      "inputs": [],
      "name": "owner",
      "outputs": [
        {
          "internalType": "address",
          "name": "",
          "type": "address"
        }
      ],
      "stateMutability": "view",
      "type": "function"
    },
    {
      "inputs": [
        {
          "internalType": "enum DDCVestingVault.Category",
          "name": "",
          "type": "uint8"
        }
      ],
      "name": "plans",
      "outputs": [
        {
          "internalType": "enum DDCVestingVault.PlanType",
          "name": "planType",
          "type": "uint8"
        },
        {
          "internalType": "uint16",
          "name": "tgeUnlockBps",
          "type": "uint16"
        },
        {
          "internalType": "uint32",
          "name": "cliffSeconds",
          "type": "uint32"
        },
        {
          "internalType": "uint32",
          "name": "linearSeconds",
          "type": "uint32"
        }
      ],
      "stateMutability": "view",
      "type": "function"
    },
    {
      "inputs": [],
      "name": "presaleAddress",
      "outputs": [
        {
          "internalType": "address",
          "name": "",
          "type": "address"
        }
      ],
      "stateMutability": "view",
      "type": "function"
    },
    {
      "inputs": [
        {
          "internalType": "address",
          "name": "user",
          "type": "address"
        }
      ],
      "name": "presaleClaimable",
      "outputs": [
        {
          "internalType": "uint256",
          "name": "",
          "type": "uint256"
        }
      ],
      "stateMutability": "view",
      "type": "function"
    },
    {
      "inputs": [
        {
          "internalType": "address",
          "name": "user",
          "type": "address"
        }
      ],
      "name": "presaleClaimed",
      "outputs": [
        {
          "internalType": "uint256",
          "name": "",
          "type": "uint256"
        }
      ],
      "stateMutability": "view",
      "type": "function"
    },
    {
      "inputs": [
        {
          "internalType": "address",
          "name": "user",
          "type": "address"
        }
      ],
      "name": "presaleLocked",
      "outputs": [
        {
          "internalType": "uint256",
          "name": "",
          "type": "uint256"
        }
      ],
      "stateMutability": "view",
      "type": "function"
    },
    {
      "inputs": [],
      "name": "renounceOwnership",
      "outputs": [],
      "stateMutability": "nonpayable",
      "type": "function"
    },
    {
      "inputs": [
        {
          "internalType": "address",
          "name": "allocator",
          "type": "address"
        },
        {
          "internalType": "enum DDCVestingVault.Category",
          "name": "cat",
          "type": "uint8"
        },
        {
          "internalType": "bool",
          "name": "allowed",
          "type": "bool"
        }
      ],
      "name": "setAllocator",
      "outputs": [],
      "stateMutability": "nonpayable",
      "type": "function"
    },
    {
      "inputs": [
        {
          "internalType": "address",
          "name": "presale",
          "type": "address"
        }
      ],
      "name": "setPresale",
      "outputs": [],
      "stateMutability": "nonpayable",
      "type": "function"
    },
    {
      "inputs": [
        {
          "internalType": "uint64",
          "name": "ts",
          "type": "uint64"
        }
      ],
      "name": "setTgeTimestamp",
      "outputs": [],
      "stateMutability": "nonpayable",
      "type": "function"
    },
    {
      "inputs": [],
      "name": "tgeSet",
      "outputs": [
        {
          "internalType": "bool",
          "name": "",
          "type": "bool"
        }
      ],
      "stateMutability": "view",
      "type": "function"
    },
    {
      "inputs": [],
      "name": "tgeTimestamp",
      "outputs": [
        {
          "internalType": "uint64",
          "name": "",
          "type": "uint64"
        }
      ],
      "stateMutability": "view",
      "type": "function"
    },
    {
      "inputs": [
        {
          "internalType": "address",
          "name": "newOwner",
          "type": "address"
        }
      ],
      "name": "transferOwnership",
      "outputs": [],
      "stateMutability": "nonpayable",
      "type": "function"
    }
  ],
  "bytecode": "0x60a06040523480156200001157600080fd5b50604051620027a6380380620027a68339818101604052810190620000379190620009b7565b33600073ffffffffffffffffffffffffffffffffffffffff168173ffffffffffffffffffffffffffffffffffffffff1603620000ad5760006040517f1e4fbdf7000000000000000000000000000000000000000000000000000000008152600401620000a49190620009fa565b60405180910390fd5b620000be816200087560201b60201c565b5060018081905550600073ffffffffffffffffffffffffffffffffffffffff168173ffffffffffffffffffffffffffffffffffffffff16036200012d576040517fd252903400000000000000000000000000000000000000000000000000000000815260040160405180910390fd5b8073ffffffffffffffffffffffffffffffffffffffff1660808173ffffffffffffffffffffffffffffffffffffffff1681525050604051806080016040528060028081111562000182576200018162000a17565b5b81526020016103e861ffff168152602001600063ffffffff168152602001600063ffffffff1681525060036000806003811115620001c557620001c462000a17565b5b6003811115620001da57620001d962000a17565b5b815260200190815260200160002060008201518160000160006101000a81548160ff0219169083600281111562000216576200021562000a17565b5b021790555060208201518160000160016101000a81548161ffff021916908361ffff16021790555060408201518160000160036101000a81548163ffffffff021916908363ffffffff16021790555060608201518160000160076101000a81548163ffffffff021916908363ffffffff160217905550905050604051806080016040528060006002811115620002b157620002b062000a17565b5b8152602001600061ffff168152602001600063ffffffff168152602001600063ffffffff168152506003600060016003811115620002f457620002f362000a17565b5b600381111562000309576200030862000a17565b5b815260200190815260200160002060008201518160000160006101000a81548160ff0219169083600281111562000345576200034462000a17565b5b021790555060208201518160000160016101000a81548161ffff021916908361ffff16021790555060408201518160000160036101000a81548163ffffffff021916908363ffffffff16021790555060608201518160000160076101000a81548163ffffffff021916908363ffffffff160217905550905050604051806080016040528060016002811115620003e057620003df62000a17565b5b8152602001600061ffff168152602001600063ffffffff168152602001600063ffffffff16815250600360006002600381111562000423576200042262000a17565b5b600381111562000438576200043762000a17565b5b815260200190815260200160002060008201518160000160006101000a81548160ff0219169083600281111562000474576200047362000a17565b5b021790555060208201518160000160016101000a81548161ffff021916908361ffff16021790555060408201518160000160036101000a81548163ffffffff021916908363ffffffff16021790555060608201518160000160076101000a81548163ffffffff021916908363ffffffff1602179055509050506040518060800160405280600160028111156200050f576200050e62000a17565b5b8152602001600061ffff1681526020016276a70063ffffffff1681526020016302c7ea0063ffffffff168152506003600060038081111562000556576200055562000a17565b5b60038111156200056b576200056a62000a17565b5b815260200190815260200160002060008201518160000160006101000a81548160ff02191690836002811115620005a757620005a662000a17565b5b021790555060208201518160000160016101000a81548161ffff021916908361ffff16021790555060408201518160000160036101000a81548163ffffffff021916908363ffffffff16021790555060608201518160000160076101000a81548163ffffffff021916908363ffffffff1602179055509050506001600460003373ffffffffffffffffffffffffffffffffffffffff1673ffffffffffffffffffffffffffffffffffffffff168152602001908152602001600020600080600381111562000679576200067862000a17565b5b60038111156200068e576200068d62000a17565b5b815260200190815260200160002060006101000a81548160ff0219169083151502179055506001600460003373ffffffffffffffffffffffffffffffffffffffff1673ffffffffffffffffffffffffffffffffffffffff1681526020019081526020016000206000600160038111156200070d576200070c62000a17565b5b600381111562000722576200072162000a17565b5b815260200190815260200160002060006101000a81548160ff0219169083151502179055506001600460003373ffffffffffffffffffffffffffffffffffffffff1673ffffffffffffffffffffffffffffffffffffffff168152602001908152602001600020600060026003811115620007a157620007a062000a17565b5b6003811115620007b657620007b562000a17565b5b815260200190815260200160002060006101000a81548160ff0219169083151502179055506001600460003373ffffffffffffffffffffffffffffffffffffffff1673ffffffffffffffffffffffffffffffffffffffff168152602001908152602001600020600060038081111562000834576200083362000a17565b5b600381111562000849576200084862000a17565b5b815260200190815260200160002060006101000a81548160ff0219169083151502179055505062000a46565b60008060009054906101000a900473ffffffffffffffffffffffffffffffffffffffff169050816000806101000a81548173ffffffffffffffffffffffffffffffffffffffff021916908373ffffffffffffffffffffffffffffffffffffffff1602179055508173ffffffffffffffffffffffffffffffffffffffff168173ffffffffffffffffffffffffffffffffffffffff167f8be0079c531659141344cd1fd0a4f28419497f9722a3daafe3b4186f6b6457e060405160405180910390a35050565b600080fd5b600073ffffffffffffffffffffffffffffffffffffffff82169050919050565b60006200096b826200093e565b9050919050565b60006200097f826200095e565b9050919050565b620009918162000972565b81146200099d57600080fd5b50565b600081519050620009b18162000986565b92915050565b600060208284031215620009d057620009cf62000939565b5b6000620009e084828501620009a0565b91505092915050565b620009f4816200095e565b82525050565b600060208201905062000a116000830184620009e9565b92915050565b7f4e487b7100000000000000000000000000000000000000000000000000000000600052602160045260246000fd5b608051611d3d62000a69600039600081816105190152610e6b0152611d3d6000f3fe608060405234801561001057600080fd5b50600436106101215760003560e01c80638da5cb5b116100ad578063e26e04e311610071578063e26e04e3146102e7578063f2fde38b14610317578063f6e8843d14610333578063f9765bc114610363578063fe33fc491461039357610121565b80638da5cb5b14610243578063a3e4f1eb14610261578063a4317ef41461027d578063c46fae741461029b578063d5fcc7b6146102cb57610121565b806332e7c2c4116100f457806332e7c2c41461019a57806360a31a88146101b857806367da65d9146101eb578063715018a61461021b57806374a8208b1461022557610121565b8063046ef9a5146101265780630e00b9bf146101445780630f0455c214610160578063122fe6851461017c575b600080fd5b61012e6103af565b60405161013b91906116bf565b60405180910390f35b61015e6004803603810190610159919061173d565b6103d1565b005b61017a600480360381019061017591906117c7565b6103f2565b005b6101846104f1565b6040516101919190611829565b60405180910390f35b6101a2610517565b6040516101af91906118a3565b60405180910390f35b6101d260048036038101906101cd91906118be565b61053b565b6040516101e2949392919061199e565b60405180910390f35b6102056004803603810190610200919061173d565b6105a6565b60405161021291906116bf565b60405180910390f35b610223610656565b005b61022d61066a565b60405161023a91906119f2565b60405180910390f35b61024b61067d565b6040516102589190611829565b60405180910390f35b61027b60048036038101906102769190611a39565b6106a6565b005b610285610863565b6040516102929190611aaf565b60405180910390f35b6102b560048036038101906102b09190611aca565b61087d565b6040516102c291906119f2565b60405180910390f35b6102e560048036038101906102e0919061173d565b6108ac565b005b61030160048036038101906102fc919061173d565b6109e6565b60405161030e91906116bf565b60405180910390f35b610331600480360381019061032c919061173d565b610a91565b005b61034d6004803603810190610348919061173d565b610b17565b60405161035a91906116bf565b60405180910390f35b61037d6004803603810190610378919061173d565b610bc7565b60405161038a91906116bf565b60405180910390f35b6103ad60048036038101906103a89190611b36565b610c48565b005b60006103b9610d22565b6103c4336000610d68565b90506103ce610f4a565b90565b6103d9610f53565b6103e2816108ac565b6103ef81600060016103f2565b50565b6103fa610f53565b600073ffffffffffffffffffffffffffffffffffffffff168373ffffffffffffffffffffffffffffffffffffffff1603610460576040517fd252903400000000000000000000000000000000000000000000000000000000815260040160405180910390fd5b80600460008573ffffffffffffffffffffffffffffffffffffffff1673ffffffffffffffffffffffffffffffffffffffff16815260200190815260200160002060008460038111156104b5576104b46118eb565b5b60038111156104c7576104c66118eb565b5b815260200190815260200160002060006101000a81548160ff021916908315150217905550505050565b600260099054906101000a900473ffffffffffffffffffffffffffffffffffffffff1681565b7f000000000000000000000000000000000000000000000000000000000000000081565b60036020528060005260406000206000915090508060000160009054906101000a900460ff16908060000160019054906101000a900461ffff16908060000160039054906101000a900463ffffffff16908060000160079054906101000a900463ffffffff16905084565b6000806105b4836000610fda565b90506000600560008573ffffffffffffffffffffffffffffffffffffffff1673ffffffffffffffffffffffffffffffffffffffff168152602001908152602001600020600080600381111561060c5761060b6118eb565b5b600381111561061e5761061d6118eb565b5b815260200190815260200160002060000154905081811161064057600061064d565b818161064c9190611b92565b5b92505050919050565b61065e610f53565b61066860006113ed565b565b600260089054906101000a900460ff1681565b60008060009054906101000a900473ffffffffffffffffffffffffffffffffffffffff16905090565b600460003373ffffffffffffffffffffffffffffffffffffffff1673ffffffffffffffffffffffffffffffffffffffff16815260200190815260200160002060008460038111156106fa576106f96118eb565b5b600381111561070c5761070b6118eb565b5b815260200190815260200160002060009054906101000a900460ff1661075e576040517fea8e4eb500000000000000000000000000000000000000000000000000000000815260040160405180910390fd5b600073ffffffffffffffffffffffffffffffffffffffff168273ffffffffffffffffffffffffffffffffffffffff1614806107995750600081145b156107d0576040517fd252903400000000000000000000000000000000000000000000000000000000815260040160405180910390fd5b80600560008473ffffffffffffffffffffffffffffffffffffffff1673ffffffffffffffffffffffffffffffffffffffff1681526020019081526020016000206000856003811115610825576108246118eb565b5b6003811115610837576108366118eb565b5b815260200190815260200160002060000160008282546108579190611bc6565b92505081905550505050565b600260009054906101000a900467ffffffffffffffff1681565b60046020528160005260406000206020528060005260406000206000915091509054906101000a900460ff1681565b6108b4610f53565b600073ffffffffffffffffffffffffffffffffffffffff168173ffffffffffffffffffffffffffffffffffffffff160361091a576040517fd252903400000000000000000000000000000000000000000000000000000000815260040160405180910390fd5b600073ffffffffffffffffffffffffffffffffffffffff16600260099054906101000a900473ffffffffffffffffffffffffffffffffffffffff1673ffffffffffffffffffffffffffffffffffffffff16146109a2576040517fd252903400000000000000000000000000000000000000000000000000000000815260040160405180910390fd5b80600260096101000a81548173ffffffffffffffffffffffffffffffffffffffff021916908373ffffffffffffffffffffffffffffffffffffffff16021790555050565b60006109f0610d22565b600260099054906101000a900473ffffffffffffffffffffffffffffffffffffffff1673ffffffffffffffffffffffffffffffffffffffff163373ffffffffffffffffffffffffffffffffffffffff1614610a77576040517fea8e4eb500000000000000000000000000000000000000000000000000000000815260040160405180910390fd5b610a82826000610d68565b9050610a8c610f4a565b919050565b610a99610f53565b600073ffffffffffffffffffffffffffffffffffffffff168173ffffffffffffffffffffffffffffffffffffffff1603610b0b5760006040517f1e4fbdf7000000000000000000000000000000000000000000000000000000008152600401610b029190611829565b60405180910390fd5b610b14816113ed565b50565b600080610b25836000610fda565b90506000600560008573ffffffffffffffffffffffffffffffffffffffff1673ffffffffffffffffffffffffffffffffffffffff1681526020019081526020016000206000806003811115610b7d57610b7c6118eb565b5b6003811115610b8f57610b8e6118eb565b5b8152602001908152602001600020600101549050808211610bb1576000610bbe565b8082610bbd9190611b92565b5b92505050919050565b6000600560008373ffffffffffffffffffffffffffffffffffffffff1673ffffffffffffffffffffffffffffffffffffffff1681526020019081526020016000206000806003811115610c1d57610c1c6118eb565b5b6003811115610c2f57610c2e6118eb565b5b8152602001908152602001600020600101549050919050565b610c50610f53565b600260089054906101000a900460ff1615610c97576040517fd252903400000000000000000000000000000000000000000000000000000000815260040160405180910390fd5b60008167ffffffffffffffff1603610cdb576040517fd252903400000000000000000000000000000000000000000000000000000000815260040160405180910390fd5b80600260006101000a81548167ffffffffffffffff021916908367ffffffffffffffff1602179055506001600260086101000a81548160ff02191690831515021790555050565b600260015403610d5e576040517f3ee5aeb500000000000000000000000000000000000000000000000000000000815260040160405180910390fd5b6002600181905550565b6000600260089054906101000a900460ff16610db0576040517f8768174f00000000000000000000000000000000000000000000000000000000815260040160405180910390fd5b6000610dbc8484610fda565b90506000600560008673ffffffffffffffffffffffffffffffffffffffff1673ffffffffffffffffffffffffffffffffffffffff1681526020019081526020016000206000856003811115610e1457610e136118eb565b5b6003811115610e2657610e256118eb565b5b8152602001908152602001600020905080600101548211610e4c57600092505050610f44565b806001015482610e5c9190611b92565b925081816001018190555060007f000000000000000000000000000000000000000000000000000000000000000073ffffffffffffffffffffffffffffffffffffffff1663a9059cbb87866040518363ffffffff1660e01b8152600401610ec4929190611bfa565b6020604051808303816000875af1158015610ee3573d6000803e3d6000fd5b505050506040513d601f19601f82011682018060405250810190610f079190611c38565b905080610f40576040517f90b8ec1800000000000000000000000000000000000000000000000000000000815260040160405180910390fd5b5050505b92915050565b60018081905550565b610f5b6114b1565b73ffffffffffffffffffffffffffffffffffffffff16610f7961067d565b73ffffffffffffffffffffffffffffffffffffffff1614610fd857610f9c6114b1565b6040517f118cdaa7000000000000000000000000000000000000000000000000000000008152600401610fcf9190611829565b60405180910390fd5b565b600080600560008573ffffffffffffffffffffffffffffffffffffffff1673ffffffffffffffffffffffffffffffffffffffff1681526020019081526020016000206000846003811115611031576110306118eb565b5b6003811115611043576110426118eb565b5b8152602001908152602001600020604051806040016040529081600082015481526020016001820154815250509050600260089054906101000a900460ff166110905760009150506113e7565b600260009054906101000a900467ffffffffffffffff1667ffffffffffffffff164210156110c25760009150506113e7565b60008160000151036110d85760009150506113e7565b6000600360008560038111156110f1576110f06118eb565b5b6003811115611103576111026118eb565b5b81526020019081526020016000206040518060800160405290816000820160009054906101000a900460ff166002811115611141576111406118eb565b5b6002811115611153576111526118eb565b5b81526020016000820160019054906101000a900461ffff1661ffff1661ffff1681526020016000820160039054906101000a900463ffffffff1663ffffffff1663ffffffff1681526020016000820160079054906101000a900463ffffffff1663ffffffff1663ffffffff168152505090506002808111156111d8576111d76118eb565b5b816000015160028111156111ef576111ee6118eb565b5b14801561122057506000600381111561120b5761120a6118eb565b5b84600381111561121e5761121d6118eb565b5b145b1561123b5761123282600001516114b9565b925050506113e7565b6000600260009054906101000a900467ffffffffffffffff1667ffffffffffffffff16426112699190611b92565b90506001600281111561127f5761127e6118eb565b5b82600001516002811115611296576112956118eb565b5b1480156112ac5750816040015163ffffffff1681105b156112bd57600093505050506113e7565b6000612710836020015161ffff1685600001516112da9190611c65565b6112e49190611cd6565b90506000600160028111156112fc576112fb6118eb565b5b84600001516002811115611313576113126118eb565b5b1461131f57600061132b565b836040015163ffffffff165b90508083116113415781955050505050506113e7565b6000846060015163ffffffff1603611364578460000151955050505050506113e7565b600081846113729190611b92565b9050846060015163ffffffff16811061139757856000015196505050505050506113e7565b60008387600001516113a99190611b92565b90506000866060015163ffffffff1683836113c49190611c65565b6113ce9190611cd6565b905080856113dc9190611bc6565b985050505050505050505b92915050565b60008060009054906101000a900473ffffffffffffffffffffffffffffffffffffffff169050816000806101000a81548173ffffffffffffffffffffffffffffffffffffffff021916908373ffffffffffffffffffffffffffffffffffffffff1602179055508173ffffffffffffffffffffffffffffffffffffffff168173ffffffffffffffffffffffffffffffffffffffff167f8be0079c531659141344cd1fd0a4f28419497f9722a3daafe3b4186f6b6457e060405160405180910390a35050565b600033905090565b600080600260009054906101000a900467ffffffffffffffff1667ffffffffffffffff16426114e89190611b92565b905060006127106103e8856114fd9190611c65565b6115079190611cd6565b90506000820361151b5780925050506116a1565b600062ed4e009050600082905081841161157f576000612710611194886115429190611c65565b61154c9190611cd6565b905082858261155b9190611c65565b6115659190611cd6565b826115709190611bc6565b915081955050505050506116a1565b612710611194876115909190611c65565b61159a9190611cd6565b816115a59190611bc6565b905081846115b39190611b92565b935081841161160c576000612710610bb8886115cf9190611c65565b6115d99190611cd6565b90508285826115e89190611c65565b6115f29190611cd6565b826115fd9190611bc6565b915081955050505050506116a1565b612710610bb88761161d9190611c65565b6116279190611cd6565b816116329190611bc6565b905081846116409190611b92565b93508184116116995760006127106105dc8861165c9190611c65565b6116669190611cd6565b90508285826116759190611c65565b61167f9190611cd6565b8261168a9190611bc6565b915081955050505050506116a1565b859450505050505b919050565b6000819050919050565b6116b9816116a6565b82525050565b60006020820190506116d460008301846116b0565b92915050565b600080fd5b600073ffffffffffffffffffffffffffffffffffffffff82169050919050565b600061170a826116df565b9050919050565b61171a816116ff565b811461172557600080fd5b50565b60008135905061173781611711565b92915050565b600060208284031215611753576117526116da565b5b600061176184828501611728565b91505092915050565b6004811061177757600080fd5b50565b6000813590506117898161176a565b92915050565b60008115159050919050565b6117a48161178f565b81146117af57600080fd5b50565b6000813590506117c18161179b565b92915050565b6000806000606084860312156117e0576117df6116da565b5b60006117ee86828701611728565b93505060206117ff8682870161177a565b9250506040611810868287016117b2565b9150509250925092565b611823816116ff565b82525050565b600060208201905061183e600083018461181a565b92915050565b6000819050919050565b600061186961186461185f846116df565b611844565b6116df565b9050919050565b600061187b8261184e565b9050919050565b600061188d82611870565b9050919050565b61189d81611882565b82525050565b60006020820190506118b86000830184611894565b92915050565b6000602082840312156118d4576118d36116da565b5b60006118e28482850161177a565b91505092915050565b7f4e487b7100000000000000000000000000000000000000000000000000000000600052602160045260246000fd5b6003811061192b5761192a6118eb565b5b50565b600081905061193c8261191a565b919050565b600061194c8261192e565b9050919050565b61195c81611941565b82525050565b600061ffff82169050919050565b61197981611962565b82525050565b600063ffffffff82169050919050565b6119988161197f565b82525050565b60006080820190506119b36000830187611953565b6119c06020830186611970565b6119cd604083018561198f565b6119da606083018461198f565b95945050505050565b6119ec8161178f565b82525050565b6000602082019050611a0760008301846119e3565b92915050565b611a16816116a6565b8114611a2157600080fd5b50565b600081359050611a3381611a0d565b92915050565b600080600060608486031215611a5257611a516116da565b5b6000611a608682870161177a565b9350506020611a7186828701611728565b9250506040611a8286828701611a24565b9150509250925092565b600067ffffffffffffffff82169050919050565b611aa981611a8c565b82525050565b6000602082019050611ac46000830184611aa0565b92915050565b60008060408385031215611ae157611ae06116da565b5b6000611aef85828601611728565b9250506020611b008582860161177a565b9150509250929050565b611b1381611a8c565b8114611b1e57600080fd5b50565b600081359050611b3081611b0a565b92915050565b600060208284031215611b4c57611b4b6116da565b5b6000611b5a84828501611b21565b91505092915050565b7f4e487b7100000000000000000000000000000000000000000000000000000000600052601160045260246000fd5b6000611b9d826116a6565b9150611ba8836116a6565b9250828203905081811115611bc057611bbf611b63565b5b92915050565b6000611bd1826116a6565b9150611bdc836116a6565b9250828201905080821115611bf457611bf3611b63565b5b92915050565b6000604082019050611c0f600083018561181a565b611c1c60208301846116b0565b9392505050565b600081519050611c328161179b565b92915050565b600060208284031215611c4e57611c4d6116da565b5b6000611c5c84828501611c23565b91505092915050565b6000611c70826116a6565b9150611c7b836116a6565b9250828202611c89816116a6565b91508282048414831517611ca057611c9f611b63565b5b5092915050565b7f4e487b7100000000000000000000000000000000000000000000000000000000600052601260045260246000fd5b6000611ce1826116a6565b9150611cec836116a6565b925082611cfc57611cfb611ca7565b5b82820490509291505056fea26469706673582212205d70976f8a86dbb07a0fa3fbafdf717489aefea80f7edc13bad114ad09183e8964736f6c63430008140033",
  "linkReferences": {},
  "deployedLinkReferences": {}
}